{
  "contractName": "DomainToken",
  "abi": [
    {
      "constant": false,
      "inputs": [
        {
          "name": "domain",
          "type": "bytes32"
        }
      ],
      "name": "getProtocal",
      "outputs": [
        {
          "name": "",
          "type": "string"
        }
      ],
      "payable": false,
      "stateMutability": "nonpayable",
      "type": "function"
    },
    {
      "constant": true,
      "inputs": [
        {
          "name": "",
          "type": "bytes32"
        }
      ],
      "name": "records",
      "outputs": [
        {
          "name": "owner",
          "type": "address"
        },
        {
          "name": "endpoint",
          "type": "bytes32"
        },
        {
          "name": "protocal",
          "type": "string"
        }
      ],
      "payable": false,
      "stateMutability": "view",
      "type": "function"
    },
    {
      "constant": false,
      "inputs": [
        {
          "name": "domain",
          "type": "bytes32"
        }
      ],
      "name": "owner",
      "outputs": [
        {
          "name": "",
          "type": "address"
        }
      ],
      "payable": false,
      "stateMutability": "nonpayable",
      "type": "function"
    },
    {
      "constant": false,
      "inputs": [
        {
          "name": "domain",
          "type": "bytes32"
        },
        {
          "name": "endpoint",
          "type": "bytes32"
        }
      ],
      "name": "setEndpoint",
      "outputs": [
        {
          "name": "",
          "type": "bool"
        }
      ],
      "payable": false,
      "stateMutability": "nonpayable",
      "type": "function"
    },
    {
      "constant": false,
      "inputs": [
        {
          "name": "domain",
          "type": "bytes32"
        },
        {
          "name": "protocal",
          "type": "string"
        }
      ],
      "name": "changeProtocal",
      "outputs": [
        {
          "name": "",
          "type": "bool"
        }
      ],
      "payable": false,
      "stateMutability": "nonpayable",
      "type": "function"
    },
    {
      "constant": false,
      "inputs": [
        {
          "name": "domain",
          "type": "bytes32"
        },
        {
          "name": "newOwner",
          "type": "address"
        }
      ],
      "name": "transfer",
      "outputs": [
        {
          "name": "",
          "type": "bool"
        }
      ],
      "payable": false,
      "stateMutability": "nonpayable",
      "type": "function"
    },
    {
      "constant": false,
      "inputs": [
        {
          "name": "domain",
          "type": "bytes32"
        }
      ],
      "name": "register",
      "outputs": [
        {
          "name": "",
          "type": "bool"
        }
      ],
      "payable": false,
      "stateMutability": "nonpayable",
      "type": "function"
    },
    {
      "constant": false,
      "inputs": [
        {
          "name": "domain",
          "type": "bytes32"
        }
      ],
      "name": "lookup",
      "outputs": [
        {
          "name": "",
          "type": "bytes32"
        }
      ],
      "payable": false,
      "stateMutability": "nonpayable",
      "type": "function"
    },
    {
      "inputs": [],
      "payable": false,
      "stateMutability": "nonpayable",
      "type": "constructor"
    },
    {
      "anonymous": false,
      "inputs": [
        {
          "indexed": false,
          "name": "domain",
          "type": "bytes32"
        },
        {
          "indexed": false,
          "name": "newOwner",
          "type": "address"
        }
      ],
      "name": "Transfer",
      "type": "event"
    },
    {
      "anonymous": false,
      "inputs": [
        {
          "indexed": false,
          "name": "domain",
          "type": "bytes32"
        },
        {
          "indexed": false,
          "name": "endpoint",
          "type": "bytes32"
        }
      ],
      "name": "EndPointSet",
      "type": "event"
    },
    {
      "anonymous": false,
      "inputs": [
        {
          "indexed": false,
          "name": "domain",
          "type": "bytes32"
        },
        {
          "indexed": false,
          "name": "newOwner",
          "type": "address"
        }
      ],
      "name": "Registerd",
      "type": "event"
    },
    {
      "anonymous": false,
      "inputs": [
        {
          "indexed": false,
          "name": "domain",
          "type": "bytes32"
        },
        {
          "indexed": false,
          "name": "newProtocal",
          "type": "string"
        }
      ],
      "name": "ProtocalSet",
      "type": "event"
    }
  ],
  "bytecode": "0x6060604052341561000f57600080fd5b33600080602a60010260001916815260200190815260200160002060000160006101000a81548173ffffffffffffffffffffffffffffffffffffffff021916908373ffffffffffffffffffffffffffffffffffffffff160217905550610b978061007a6000396000f30060606040526004361061008d576000357c0100000000000000000000000000000000000000000000000000000000900463ffffffff1680623717c01461009257806301e647251461013257806302571be31461023157806311a3f2c41461029857806378057eb6146102e457806379ce9fac14610366578063e1fa8e84146103c4578063f39ec1f714610403575b600080fd5b341561009d57600080fd5b6100b7600480803560001916906020019091905050610446565b6040518080602001828103825283818151815260200191508051906020019080838360005b838110156100f75780820151818401526020810190506100dc565b50505050905090810190601f1680156101245780820380516001836020036101000a031916815260200191505b509250505060405180910390f35b341561013d57600080fd5b61015760048080356000191690602001909190505061050b565b604051808473ffffffffffffffffffffffffffffffffffffffff1673ffffffffffffffffffffffffffffffffffffffff1681526020018360001916600019168152602001806020018281038252838181546001816001161561010002031660029004815260200191508054600181600116156101000203166002900480156102205780601f106101f557610100808354040283529160200191610220565b820191906000526020600020905b81548152906001019060200180831161020357829003601f168201915b505094505050505060405180910390f35b341561023c57600080fd5b610256600480803560001916906020019091905050610554565b604051808273ffffffffffffffffffffffffffffffffffffffff1673ffffffffffffffffffffffffffffffffffffffff16815260200191505060405180910390f35b34156102a357600080fd5b6102ca6004808035600019169060200190919080356000191690602001909190505061059b565b604051808215151515815260200191505060405180910390f35b34156102ef57600080fd5b61034c60048080356000191690602001909190803590602001908201803590602001908080601f01602080910402602001604051908101604052809392919081815260200183838082843782019150505050505091905050610695565b604051808215151515815260200191505060405180910390f35b341561037157600080fd5b6103aa60048080356000191690602001909190803573ffffffffffffffffffffffffffffffffffffffff169060200190919050506107f8565b604051808215151515815260200191505060405180910390f35b34156103cf57600080fd5b6103e960048080356000191690602001909190505061094c565b604051808215151515815260200191505060405180910390f35b341561040e57600080fd5b610428600480803560001916906020019091905050610a8b565b60405180826000191660001916815260200191505060405180910390f35b61044e610ab2565b60008083600019166000191681526020019081526020016000206002018054600181600116156101000203166002900480601f0160208091040260200160405190810160405280929190818152602001828054600181600116156101000203166002900480156104ff5780601f106104d4576101008083540402835291602001916104ff565b820191906000526020600020905b8154815290600101906020018083116104e257829003601f168201915b50505050509050919050565b60006020528060005260406000206000915090508060000160009054906101000a900473ffffffffffffffffffffffffffffffffffffffff169080600101549080600201905083565b6000806000836000191660001916815260200190815260200160002060000160009054906101000a900473ffffffffffffffffffffffffffffffffffffffff169050919050565b600082600080826000191660001916815260200190815260200160002060000160009054906101000a900473ffffffffffffffffffffffffffffffffffffffff1673ffffffffffffffffffffffffffffffffffffffff163373ffffffffffffffffffffffffffffffffffffffff1614151561061557600080fd5b82600080866000191660001916815260200190815260200160002060010181600019169055507f7be103f1bc0a744b647e99bbb93686add45aa36fef41af8219179fefa856bbb8848460405180836000191660001916815260200182600019166000191681526020019250505060405180910390a1600191505092915050565b600082600080826000191660001916815260200190815260200160002060000160009054906101000a900473ffffffffffffffffffffffffffffffffffffffff1673ffffffffffffffffffffffffffffffffffffffff163373ffffffffffffffffffffffffffffffffffffffff1614151561070f57600080fd5b8260008086600019166000191681526020019081526020016000206002019080519060200190610740929190610ac6565b507fd63e4ccb155fa13e04556bae545abacaceaba1faab79bceca1c66202ec81a0aa848460405180836000191660001916815260200180602001828103825283818151815260200191508051906020019080838360005b838110156107b2578082015181840152602081019050610797565b50505050905090810190601f1680156107df5780820380516001836020036101000a031916815260200191505b50935050505060405180910390a1600191505092915050565b600082600080826000191660001916815260200190815260200160002060000160009054906101000a900473ffffffffffffffffffffffffffffffffffffffff1673ffffffffffffffffffffffffffffffffffffffff163373ffffffffffffffffffffffffffffffffffffffff1614151561087257600080fd5b82600080866000191660001916815260200190815260200160002060000160006101000a81548173ffffffffffffffffffffffffffffffffffffffff021916908373ffffffffffffffffffffffffffffffffffffffff1602179055507fd4735d920b0f87494915f556dd9b54c8f309026070caea5c737245152564d26684846040518083600019166000191681526020018273ffffffffffffffffffffffffffffffffffffffff1673ffffffffffffffffffffffffffffffffffffffff1681526020019250505060405180910390a1600191505092915050565b600080600080846000191660001916815260200190815260200160002060000160009054906101000a900473ffffffffffffffffffffffffffffffffffffffff1673ffffffffffffffffffffffffffffffffffffffff161415610a815733600080846000191660001916815260200190815260200160002060000160006101000a81548173ffffffffffffffffffffffffffffffffffffffff021916908373ffffffffffffffffffffffffffffffffffffffff1602179055507f86ef389140de05d011e7ce6cb0b83b98bfc335eed7815332ad6e65a85623a8f282336040518083600019166000191681526020018273ffffffffffffffffffffffffffffffffffffffff1673ffffffffffffffffffffffffffffffffffffffff1681526020019250505060405180910390a160019050610a86565b600090505b919050565b60008060008360001916600019168152602001908152602001600020600101549050919050565b602060405190810160405280600081525090565b828054600181600116156101000203166002900490600052602060002090601f016020900481019282601f10610b0757805160ff1916838001178555610b35565b82800160010185558215610b35579182015b82811115610b34578251825591602001919060010190610b19565b5b509050610b429190610b46565b5090565b610b6891905b80821115610b64576000816000905550600101610b4c565b5090565b905600a165627a7a72305820977333f2ffe273d13a9bfd24d9da6f6856af5c9cd0552c55b79ef46912f83a4a0029",
  "source": "pragma solidity ^0.4.17;\n\nimport \"./domain.sol\";\n\n\ncontract DomainToken {\n    \n    struct Record {\n        address owner;\n        bytes32 endpoint;\n        string protocal;\n    }\n\n    mapping(bytes32 => Record) public records;\n\n    event Transfer(bytes32 domain, address newOwner);\n    event EndPointSet(bytes32 domain,bytes32 endpoint);\n    event Registerd(bytes32 domain,address newOwner);\n    event ProtocalSet(bytes32 domain, string newProtocal);\n\n    modifier ownership(bytes32 domain) {\n    \n        require(msg.sender == records[domain].owner);\n        _;\n        } \n    \n    function DomainToken() {\n        records[42].owner = msg.sender;\n    }\n\n    function lookup(bytes32 domain) public returns (bytes32) {\n        return records[domain].endpoint;\n    }\n\n    function getProtocal(bytes32 domain) public returns (string) {\n        return records[domain].protocal;\n    }\n\n    function owner(bytes32 domain) public returns (address) {\n        return records[domain].owner;\n    }\n\n    function register(bytes32 domain) public returns (bool) {\n        if (records[domain].owner == 0) {\n            records[domain].owner = msg.sender;\n            Registerd(domain,msg.sender);\n            return true;\n       \n        }else {\n            return false;\n            }\n        }\n    \n    function setEndpoint(bytes32 domain, bytes32 endpoint) ownership(domain) public returns (bool) {\n        records[domain].endpoint = endpoint;\n        EndPointSet(domain,endpoint);\n        return true;\n    }\n\n    function transfer(bytes32 domain, address newOwner) ownership(domain) public returns (bool) {\n        records[domain].owner = newOwner;\n        Transfer(domain, newOwner);\n        return true;\n    }\n\n    function changeProtocal(bytes32 domain, string protocal) ownership(domain) public returns (bool) {\n        records[domain].protocal = protocal;\n        ProtocalSet(domain,protocal);\n        return true;\n    }\n}",
  "sourcePath": "/Users/austin/Documents/CodeBukkit/DomainToken/contracts/domainToken.sol",
  "compiler": {
    "name": "solc",
    "version": "0.4.18+commit.9cf6e910.Emscripten.clang"
  },
  "schemaVersion": "1.0.1",
  "updatedAt": "2018-01-16T21:39:46.799Z"
}